{
  "contractName": "Admin",
  "abi": [
    {
      "inputs": [],
      "payable": false,
      "stateMutability": "nonpayable",
      "type": "constructor"
    },
    {
      "constant": false,
      "inputs": [
        {
          "name": "accountAddress",
          "type": "address"
        }
      ],
      "name": "makeAdmin",
      "outputs": [],
      "payable": false,
      "stateMutability": "nonpayable",
      "type": "function"
    },
    {
      "constant": false,
      "inputs": [
        {
          "name": "accountAddress",
          "type": "address"
        }
      ],
      "name": "revokeAdmin",
      "outputs": [],
      "payable": false,
      "stateMutability": "nonpayable",
      "type": "function"
    }
  ],
  "bytecode": "0x608060405234801561001057600080fd5b5060016000803373ffffffffffffffffffffffffffffffffffffffff1673ffffffffffffffffffffffffffffffffffffffff16815260200190815260200160002060006101000a81548160ff021916908315150217905550610277806100776000396000f30060806040526004361061004c576000357c0100000000000000000000000000000000000000000000000000000000900463ffffffff1680632d34567014610051578063472905ca14610094575b600080fd5b34801561005d57600080fd5b50610092600480360381019080803573ffffffffffffffffffffffffffffffffffffffff1690602001909291905050506100d7565b005b3480156100a057600080fd5b506100d5600480360381019080803573ffffffffffffffffffffffffffffffffffffffff169060200190929190505050610191565b005b33600115156000808373ffffffffffffffffffffffffffffffffffffffff1673ffffffffffffffffffffffffffffffffffffffff16815260200190815260200160002060009054906101000a900460ff16151514151561013657600080fd5b60008060008473ffffffffffffffffffffffffffffffffffffffff1673ffffffffffffffffffffffffffffffffffffffff16815260200190815260200160002060006101000a81548160ff0219169083151502179055505050565b33600115156000808373ffffffffffffffffffffffffffffffffffffffff1673ffffffffffffffffffffffffffffffffffffffff16815260200190815260200160002060009054906101000a900460ff1615151415156101f057600080fd5b60016000808473ffffffffffffffffffffffffffffffffffffffff1673ffffffffffffffffffffffffffffffffffffffff16815260200190815260200160002060006101000a81548160ff02191690831515021790555050505600a165627a7a7230582033227d6c59c8611c478a1d53b7c61268e7c154654bf6c37fb2d3d37a7788d37e0029",
  "source": "pragma solidity 0.4.24;\n\n    contract Admin {\n\n\tmapping (address => bool) adminWhitelist;\n\n\tconstructor () {\n\t\tadminWhitelist[msg.sender] = true;\n\t}\n\n\tmodifier _isAdmin(address accountAddress) {\n\t\trequire(adminWhitelist[accountAddress] == true);\n\t\t_;\n\t}\n\n\tfunction makeAdmin(address accountAddress) public _isAdmin(msg.sender) {\n\t\tadminWhitelist[accountAddress] = true;\n\t}\n\n\tfunction revokeAdmin(address accountAddress) public _isAdmin(msg.sender) {\n\t\tadminWhitelist[accountAddress] = false;\n\t}\n}\n",
  "sourcePath": "/Users/grotz-dev/Desktop/image-uploader-ipfs/poe-dapp/contracts/Admin.sol",
  "compiler": {
    "name": "solc",
    "version": "0.4.24+commit.e67f0147.Emscripten.clang"
  },
  "schemaVersion": "2.0.1",
  "updatedAt": "2018-08-28T05:00:54.569Z"
}